:100000000C9434000C9446000C9446000C9446006A
:100010000C9446000C9446000C9446000C94460048
:100020000C9446000C9446000C9446000C94460038
:100030000C9446000C9490010C9446000C944600DD
:100040000C944F010C9446000C9446000C9446000E
:100050000C9446000C94E6010C9446000C94460067
:100060000C9446000C94460011241FBECFEFD8E03C
:10007000DEBFCDBF21E0A0E0B1E001C01D92A830FD
:10008000B207E1F70E9448000C94F3030C940000BF
:100090000F931F93CF93DF93CDB7DEB72E970FB695
:1000A000F894DEBF0FBECDBF8AE290E020E4FC01F1
:1000B000208384E290E022E0FC01208384E490E04D
:1000C00023E8FC01208380E890E029E8FC012083FC
:1000D0008EE690E021E0FC0120838FE690E021E0B5
:1000E000FC01208308E810E0809104019091050153
:1000F000A0910601B091070120E030E048EC52E405
:10010000BC01CD010E942E02DC01CB0120E030E0D9
:100110004FE753E4BC01CD010E948603DC01CB0113
:10012000BC01CD010E94A002DC01CB01F80191834A
:1001300080830E943601789485E490E025E0FC01FC
:10014000208381E890E025E0FC01208380E090E0BE
:10015000A8ECB2E489839A83AB83BC8320E030E4CB
:100160004CE955E469817A818B819C810E948603E8
:10017000DC01CB018D839E83AF83B88720E030E024
:1001800040E85FE36D817E818F8198850E9429021E
:1001900088232CF481E090E09A8789873FC020E093
:1001A0003FEF4FE757E46D817E818F8198850E94F4
:1001B000810318164CF520E030E040E251E46981FB
:1001C0007A818B819C810E948603DC01CB01BC017A
:1001D000CD010E94A002DC01CB019A8789870FC064
:1001E00084EF91E09C878B878B859C850197F1F745
:1001F0009C878B8789859A8501979A8789878985C6
:100200009A85892B69F714C06D817E818F819885CD
:100210000E94A002DC01CB019A87898789859A8593
:100220009E878D878D859E850197F1F79E878D87A7
:1002300080E090E0A8E4B2E480930401909305018B
:10024000A0930601B093070181CFCF93DF93CDB781
:10025000DEB78AE790E02AE730E0F90120812064E8
:10026000FC0120830000DF91CF910895CF93DF93AD
:10027000CDB7DEB78CE790E025E4FC0120838AE768
:1002800090E02FE8FC0120838EE790E020E2FC0163
:1002900020830E9425010000DF91CF9108951F92D5
:1002A0000F9200905F000F9211240F931F932F93D2
:1002B0003F934F935F936F937F938F939F93AF93EE
:1002C000BF93EF93FF93CF93DF93CDB7DEB707E4F0
:1002D00010E08091000190910101A0910201B09184
:1002E0000301BC01CD010E94A002DC01CB01F80199
:1002F00080830000DF91CF91FF91EF91BF91AF918B
:100300009F918F917F916F915F914F913F912F912D
:100310001F910F910F9000925F000F901F90189502
:100320001F920F9200905F000F9211240F931F9362
:100330002F933F934F935F936F937F938F939F93ED
:10034000AF93BF93EF93FF93CF93DF93CDB7DEB718
:1003500008E810E08091040190910501A091060148
:10036000B091070120E030E048EC52E4BC01CD013F
:100370000E942E02DC01CB0120E030E04FE753E485
:10038000BC01CD010E948603DC01CB01BC01CD0183
:100390000E94A002DC01CB01F80191838083000060
:1003A000DF91CF91FF91EF91BF91AF919F918F918D
:1003B0007F916F915F914F913F912F911F910F917D
:1003C0000F9000925F000F901F9018951F920F9250
:1003D00000905F000F9211242F933F934F935F93F0
:1003E0006F937F938F939F93AF93BF93EF93FF93FD
:1003F000CF93DF93CDB7DEB788E790E0FC01808133
:100400009181CC01A0E0B0E0BC01CD010E94CF02FF
:10041000DC01CB018093000190930101A0930201C4
:10042000B09303010E9425010000DF91CF91FF915D
:10043000EF91BF91AF919F918F917F916F915F915C
:100440004F913F912F910F9000925F000F901F905E
:1004500018950E940C0308F481E008950E9442025E
:100460000C9447030E94400358F00E94390340F067
:1004700029F45F3F29F00C94300351110C947B0355
:100480000C9436030E94580368F39923B1F3552363
:1004900091F3951B550BBB27AA2762177307840797
:1004A00038F09F5F5F4F220F331F441FAA1FA9F32D
:1004B00035D00E2E3AF0E0E832D091505040E6951B
:1004C000001CCAF72BD0FE2F29D0660F771F881F7C
:1004D000BB1F261737074807AB07B0E809F0BB0B6F
:1004E000802DBF01FF2793585F4F3AF09E3F510583
:1004F00078F00C9430030C947B035F3FE4F3983E58
:10050000D4F3869577956795B795F7959F5FC9F76B
:10051000880F911D9695879597F90895E1E0660FEC
:10052000771F881FBB1F621773078407BA0720F065
:10053000621B730B840BBA0BEE1F88F7E0950895CE
:100540000E94600388F09F5798F0B92F9927B75100
:10055000B0F0E1F0660F771F881F991F1AF0BA9567
:10056000C9F714C0B13091F00E947A03B1E0089548
:100570000C947A03672F782F8827B85F39F0B93F3A
:10058000CCF3869577956795B395D9F73EF490951A
:100590008095709561957F4F8F4F9F4F0895E89498
:1005A00009C097FB3EF490958095709561957F4FBB
:1005B0008F4F9F4F9923A9F0F92F96E9BB27939569
:1005C000F695879577956795B795F111F8CFFAF479
:1005D000BB0F11F460FF1BC06F5F7F4F8F4F9F4FAA
:1005E00016C0882311F096E911C0772321F09EE808
:1005F000872F762F05C0662371F096E8862F70E06E
:1006000060E02AF09A95660F771F881FDAF7880F47
:100610009695879597F90895990F0008550FAA0B9D
:10062000E0E8FEEF16161706E807F907C0F0121605
:100630001306E407F50798F0621B730B840B950B08
:1006400039F40A2661F0232B242B252B21F408955D
:100650000A2609F4A140A6958FEF811D811D0895FA
:1006600097F99F6780E870E060E008959FEF80EC65
:10067000089500240A941616170618060906089508
:1006800000240A9412161306140605060895092E6E
:100690000394000C11F4882352F0BB0F40F4BF2BDD
:1006A00011F460FF04C06F5F7F4F8F4F9F4F08951D
:1006B00057FD9058440F551F59F05F3F71F0479513
:1006C000880F97FB991F61F09F3F79F087950895F8
:1006D000121613061406551FF2CF4695F1DF08C017
:1006E000161617061806991FF1CF86957105610534
:1006F00008940895E894BB2766277727CB0197F9DC
:1007000008950E940C0308F48FEF08950E94990346
:100710000C9447030E94390338F00E94400320F0F4
:10072000952311F00C9430030C94360311240C948F
:100730007B030E94580370F3959FC1F3950F50E01F
:10074000551F629FF001729FBB27F00DB11D639F83
:10075000AA27F00DB11DAA1F649F6627B00DA11D29
:10076000661F829F2227B00DA11D621F739FB00DCF
:10077000A11D621F839FA00D611D221F749F33273F
:10078000A00D611D231F849F600D211D822F762FD8
:100790006A2F11249F5750409AF0F1F088234AF0B5
:1007A000EE0FFF1FBB1F661F771F881F9150504021
:1007B000A9F79E3F510580F00C9430030C947B0305
:1007C0005F3FE4F3983ED4F3869577956795B795A8
:1007D000F795E7959F5FC1F7FE2B880F911D9695C2
:0A07E000879597F90895F894FFCF6C
:00000001FF
